{
  "_format": "hh-sol-artifact-1",
  "contractName": "KryptoPunks",
  "sourceName": "contracts/KryptoPunks.sol",
  "abi": [
    {
      "inputs": [
        {
          "internalType": "uint256",
          "name": "_maxSupply",
          "type": "uint256"
        },
        {
          "internalType": "uint256",
          "name": "_cost",
          "type": "uint256"
        },
        {
          "internalType": "uint256",
          "name": "_maxMintAmountPerTx",
          "type": "uint256"
        }
      ],
      "stateMutability": "nonpayable",
      "type": "constructor"
    },
    {
      "inputs": [],
      "name": "ApprovalCallerNotOwnerNorApproved",
      "type": "error"
    },
    {
      "inputs": [],
      "name": "ApprovalQueryForNonexistentToken",
      "type": "error"
    },
    {
      "inputs": [],
      "name": "ApproveToCaller",
      "type": "error"
    },
    {
      "inputs": [],
      "name": "BalanceQueryForZeroAddress",
      "type": "error"
    },
    {
      "inputs": [],
      "name": "InvalidQueryRange",
      "type": "error"
    },
    {
      "inputs": [],
      "name": "KryptoPunks__ContractIsPaused",
      "type": "error"
    },
    {
      "inputs": [],
      "name": "KryptoPunks__InsufficientFunds",
      "type": "error"
    },
    {
      "inputs": [],
      "name": "KryptoPunks__InvalidMintAmount",
      "type": "error"
    },
    {
      "inputs": [],
      "name": "KryptoPunks__MaxMintAmountExceeded",
      "type": "error"
    },
    {
      "inputs": [],
      "name": "KryptoPunks__NftSupplyLimitExceeded",
      "type": "error"
    },
    {
      "inputs": [],
      "name": "KryptoPunks__QueryForNonExistentToken",
      "type": "error"
    },
    {
      "inputs": [],
      "name": "MintERC2309QuantityExceedsLimit",
      "type": "error"
    },
    {
      "inputs": [],
      "name": "MintToZeroAddress",
      "type": "error"
    },
    {
      "inputs": [],
      "name": "MintZeroQuantity",
      "type": "error"
    },
    {
      "inputs": [],
      "name": "OwnerQueryForNonexistentToken",
      "type": "error"
    },
    {
      "inputs": [],
      "name": "OwnershipNotInitializedForExtraData",
      "type": "error"
    },
    {
      "inputs": [],
      "name": "TransferCallerNotOwnerNorApproved",
      "type": "error"
    },
    {
      "inputs": [],
      "name": "TransferFromIncorrectOwner",
      "type": "error"
    },
    {
      "inputs": [],
      "name": "TransferToNonERC721ReceiverImplementer",
      "type": "error"
    },
    {
      "inputs": [],
      "name": "TransferToZeroAddress",
      "type": "error"
    },
    {
      "inputs": [],
      "name": "URIQueryForNonexistentToken",
      "type": "error"
    },
    {
      "anonymous": false,
      "inputs": [
        {
          "indexed": true,
          "internalType": "address",
          "name": "owner",
          "type": "address"
        },
        {
          "indexed": true,
          "internalType": "address",
          "name": "approved",
          "type": "address"
        },
        {
          "indexed": true,
          "internalType": "uint256",
          "name": "tokenId",
          "type": "uint256"
        }
      ],
      "name": "Approval",
      "type": "event"
    },
    {
      "anonymous": false,
      "inputs": [
        {
          "indexed": true,
          "internalType": "address",
          "name": "owner",
          "type": "address"
        },
        {
          "indexed": true,
          "internalType": "address",
          "name": "operator",
          "type": "address"
        },
        {
          "indexed": false,
          "internalType": "bool",
          "name": "approved",
          "type": "bool"
        }
      ],
      "name": "ApprovalForAll",
      "type": "event"
    },
    {
      "anonymous": false,
      "inputs": [
        {
          "indexed": true,
          "internalType": "uint256",
          "name": "fromTokenId",
          "type": "uint256"
        },
        {
          "indexed": false,
          "internalType": "uint256",
          "name": "toTokenId",
          "type": "uint256"
        },
        {
          "indexed": true,
          "internalType": "address",
          "name": "from",
          "type": "address"
        },
        {
          "indexed": true,
          "internalType": "address",
          "name": "to",
          "type": "address"
        }
      ],
      "name": "ConsecutiveTransfer",
      "type": "event"
    },
    {
      "anonymous": false,
      "inputs": [
        {
          "indexed": true,
          "internalType": "address",
          "name": "previousOwner",
          "type": "address"
        },
        {
          "indexed": true,
          "internalType": "address",
          "name": "newOwner",
          "type": "address"
        }
      ],
      "name": "OwnershipTransferred",
      "type": "event"
    },
    {
      "anonymous": false,
      "inputs": [
        {
          "indexed": true,
          "internalType": "address",
          "name": "from",
          "type": "address"
        },
        {
          "indexed": true,
          "internalType": "address",
          "name": "to",
          "type": "address"
        },
        {
          "indexed": true,
          "internalType": "uint256",
          "name": "tokenId",
          "type": "uint256"
        }
      ],
      "name": "Transfer",
      "type": "event"
    },
    {
      "inputs": [
        {
          "internalType": "address",
          "name": "to",
          "type": "address"
        },
        {
          "internalType": "uint256",
          "name": "tokenId",
          "type": "uint256"
        }
      ],
      "name": "approve",
      "outputs": [],
      "stateMutability": "nonpayable",
      "type": "function"
    },
    {
      "inputs": [
        {
          "internalType": "address",
          "name": "owner",
          "type": "address"
        }
      ],
      "name": "balanceOf",
      "outputs": [
        {
          "internalType": "uint256",
          "name": "",
          "type": "uint256"
        }
      ],
      "stateMutability": "view",
      "type": "function"
    },
    {
      "inputs": [],
      "name": "baseExtension",
      "outputs": [
        {
          "internalType": "string",
          "name": "",
          "type": "string"
        }
      ],
      "stateMutability": "view",
      "type": "function"
    },
    {
      "inputs": [],
      "name": "baseURI",
      "outputs": [
        {
          "internalType": "string",
          "name": "",
          "type": "string"
        }
      ],
      "stateMutability": "view",
      "type": "function"
    },
    {
      "inputs": [],
      "name": "cost",
      "outputs": [
        {
          "internalType": "uint256",
          "name": "",
          "type": "uint256"
        }
      ],
      "stateMutability": "view",
      "type": "function"
    },
    {
      "inputs": [
        {
          "internalType": "uint256",
          "name": "tokenId",
          "type": "uint256"
        }
      ],
      "name": "explicitOwnershipOf",
      "outputs": [
        {
          "components": [
            {
              "internalType": "address",
              "name": "addr",
              "type": "address"
            },
            {
              "internalType": "uint64",
              "name": "startTimestamp",
              "type": "uint64"
            },
            {
              "internalType": "bool",
              "name": "burned",
              "type": "bool"
            },
            {
              "internalType": "uint24",
              "name": "extraData",
              "type": "uint24"
            }
          ],
          "internalType": "struct IERC721A.TokenOwnership",
          "name": "",
          "type": "tuple"
        }
      ],
      "stateMutability": "view",
      "type": "function"
    },
    {
      "inputs": [
        {
          "internalType": "uint256[]",
          "name": "tokenIds",
          "type": "uint256[]"
        }
      ],
      "name": "explicitOwnershipsOf",
      "outputs": [
        {
          "components": [
            {
              "internalType": "address",
              "name": "addr",
              "type": "address"
            },
            {
              "internalType": "uint64",
              "name": "startTimestamp",
              "type": "uint64"
            },
            {
              "internalType": "bool",
              "name": "burned",
              "type": "bool"
            },
            {
              "internalType": "uint24",
              "name": "extraData",
              "type": "uint24"
            }
          ],
          "internalType": "struct IERC721A.TokenOwnership[]",
          "name": "",
          "type": "tuple[]"
        }
      ],
      "stateMutability": "view",
      "type": "function"
    },
    {
      "inputs": [
        {
          "internalType": "uint256",
          "name": "tokenId",
          "type": "uint256"
        }
      ],
      "name": "getApproved",
      "outputs": [
        {
          "internalType": "address",
          "name": "",
          "type": "address"
        }
      ],
      "stateMutability": "view",
      "type": "function"
    },
    {
      "inputs": [
        {
          "internalType": "address",
          "name": "owner",
          "type": "address"
        },
        {
          "internalType": "address",
          "name": "operator",
          "type": "address"
        }
      ],
      "name": "isApprovedForAll",
      "outputs": [
        {
          "internalType": "bool",
          "name": "",
          "type": "bool"
        }
      ],
      "stateMutability": "view",
      "type": "function"
    },
    {
      "inputs": [],
      "name": "maxMintAmountPerTx",
      "outputs": [
        {
          "internalType": "uint256",
          "name": "",
          "type": "uint256"
        }
      ],
      "stateMutability": "view",
      "type": "function"
    },
    {
      "inputs": [],
      "name": "maxSupply",
      "outputs": [
        {
          "internalType": "uint256",
          "name": "",
          "type": "uint256"
        }
      ],
      "stateMutability": "view",
      "type": "function"
    },
    {
      "inputs": [
        {
          "internalType": "uint256",
          "name": "_mintAmount",
          "type": "uint256"
        }
      ],
      "name": "mint",
      "outputs": [],
      "stateMutability": "payable",
      "type": "function"
    },
    {
      "inputs": [],
      "name": "name",
      "outputs": [
        {
          "internalType": "string",
          "name": "",
          "type": "string"
        }
      ],
      "stateMutability": "view",
      "type": "function"
    },
    {
      "inputs": [],
      "name": "owner",
      "outputs": [
        {
          "internalType": "address",
          "name": "",
          "type": "address"
        }
      ],
      "stateMutability": "view",
      "type": "function"
    },
    {
      "inputs": [
        {
          "internalType": "uint256",
          "name": "tokenId",
          "type": "uint256"
        }
      ],
      "name": "ownerOf",
      "outputs": [
        {
          "internalType": "address",
          "name": "",
          "type": "address"
        }
      ],
      "stateMutability": "view",
      "type": "function"
    },
    {
      "inputs": [
        {
          "internalType": "uint256",
          "name": "_state",
          "type": "uint256"
        }
      ],
      "name": "pause",
      "outputs": [],
      "stateMutability": "payable",
      "type": "function"
    },
    {
      "inputs": [],
      "name": "paused",
      "outputs": [
        {
          "internalType": "uint256",
          "name": "",
          "type": "uint256"
        }
      ],
      "stateMutability": "view",
      "type": "function"
    },
    {
      "inputs": [],
      "name": "renounceOwnership",
      "outputs": [],
      "stateMutability": "nonpayable",
      "type": "function"
    },
    {
      "inputs": [
        {
          "internalType": "address",
          "name": "from",
          "type": "address"
        },
        {
          "internalType": "address",
          "name": "to",
          "type": "address"
        },
        {
          "internalType": "uint256",
          "name": "tokenId",
          "type": "uint256"
        }
      ],
      "name": "safeTransferFrom",
      "outputs": [],
      "stateMutability": "nonpayable",
      "type": "function"
    },
    {
      "inputs": [
        {
          "internalType": "address",
          "name": "from",
          "type": "address"
        },
        {
          "internalType": "address",
          "name": "to",
          "type": "address"
        },
        {
          "internalType": "uint256",
          "name": "tokenId",
          "type": "uint256"
        },
        {
          "internalType": "bytes",
          "name": "_data",
          "type": "bytes"
        }
      ],
      "name": "safeTransferFrom",
      "outputs": [],
      "stateMutability": "nonpayable",
      "type": "function"
    },
    {
      "inputs": [
        {
          "internalType": "address",
          "name": "operator",
          "type": "address"
        },
        {
          "internalType": "bool",
          "name": "approved",
          "type": "bool"
        }
      ],
      "name": "setApprovalForAll",
      "outputs": [],
      "stateMutability": "nonpayable",
      "type": "function"
    },
    {
      "inputs": [
        {
          "internalType": "string",
          "name": "_newBaseURI",
          "type": "string"
        }
      ],
      "name": "setBaseURI",
      "outputs": [],
      "stateMutability": "payable",
      "type": "function"
    },
    {
      "inputs": [
        {
          "internalType": "uint256",
          "name": "_newCost",
          "type": "uint256"
        }
      ],
      "name": "setCost",
      "outputs": [],
      "stateMutability": "payable",
      "type": "function"
    },
    {
      "inputs": [
        {
          "internalType": "uint256",
          "name": "_newmaxMintAmount",
          "type": "uint256"
        }
      ],
      "name": "setMaxMintAmountPerTx",
      "outputs": [],
      "stateMutability": "payable",
      "type": "function"
    },
    {
      "inputs": [
        {
          "internalType": "bytes4",
          "name": "interfaceId",
          "type": "bytes4"
        }
      ],
      "name": "supportsInterface",
      "outputs": [
        {
          "internalType": "bool",
          "name": "",
          "type": "bool"
        }
      ],
      "stateMutability": "view",
      "type": "function"
    },
    {
      "inputs": [],
      "name": "symbol",
      "outputs": [
        {
          "internalType": "string",
          "name": "",
          "type": "string"
        }
      ],
      "stateMutability": "view",
      "type": "function"
    },
    {
      "inputs": [
        {
          "internalType": "uint256",
          "name": "tokenId",
          "type": "uint256"
        }
      ],
      "name": "tokenURI",
      "outputs": [
        {
          "internalType": "string",
          "name": "",
          "type": "string"
        }
      ],
      "stateMutability": "view",
      "type": "function"
    },
    {
      "inputs": [
        {
          "internalType": "address",
          "name": "owner",
          "type": "address"
        }
      ],
      "name": "tokensOfOwner",
      "outputs": [
        {
          "internalType": "uint256[]",
          "name": "",
          "type": "uint256[]"
        }
      ],
      "stateMutability": "view",
      "type": "function"
    },
    {
      "inputs": [
        {
          "internalType": "address",
          "name": "owner",
          "type": "address"
        },
        {
          "internalType": "uint256",
          "name": "start",
          "type": "uint256"
        },
        {
          "internalType": "uint256",
          "name": "stop",
          "type": "uint256"
        }
      ],
      "name": "tokensOfOwnerIn",
      "outputs": [
        {
          "internalType": "uint256[]",
          "name": "",
          "type": "uint256[]"
        }
      ],
      "stateMutability": "view",
      "type": "function"
    },
    {
      "inputs": [],
      "name": "totalSupply",
      "outputs": [
        {
          "internalType": "uint256",
          "name": "",
          "type": "uint256"
        }
      ],
      "stateMutability": "view",
      "type": "function"
    },
    {
      "inputs": [
        {
          "internalType": "address",
          "name": "from",
          "type": "address"
        },
        {
          "internalType": "address",
          "name": "to",
          "type": "address"
        },
        {
          "internalType": "uint256",
          "name": "tokenId",
          "type": "uint256"
        }
      ],
      "name": "transferFrom",
      "outputs": [],
      "stateMutability": "nonpayable",
      "type": "function"
    },
    {
      "inputs": [
        {
          "internalType": "address",
          "name": "newOwner",
          "type": "address"
        }
      ],
      "name": "transferOwnership",
      "outputs": [],
      "stateMutability": "nonpayable",
      "type": "function"
    },
    {
      "inputs": [],
      "name": "withdraw",
      "outputs": [],
      "stateMutability": "payable",
      "type": "function"
    }
  ],
  "bytecode": "0x60806040526001600d553480156200001657600080fd5b50604051620039fa380380620039fa83398181016040528101906200003c9190620002ca565b6040518060400160405280601881526020017f4b727970746f2050756e6b7320436f6c6c65637469626c6500000000000000008152506040518060400160405280600381526020017f4b504300000000000000000000000000000000000000000000000000000000008152508160029080519060200190620000c092919062000203565b508060039080519060200190620000d992919062000203565b50620000ea6200013060201b60201c565b600081905550505062000112620001066200013560201b60201c565b6200013d60201b60201c565b81600a8190555080600c8190555082600b81905550505050620003b4565b600090565b600033905090565b6000600860009054906101000a900473ffffffffffffffffffffffffffffffffffffffff16905081600860006101000a81548173ffffffffffffffffffffffffffffffffffffffff021916908373ffffffffffffffffffffffffffffffffffffffff1602179055508173ffffffffffffffffffffffffffffffffffffffff168173ffffffffffffffffffffffffffffffffffffffff167f8be0079c531659141344cd1fd0a4f28419497f9722a3daafe3b4186f6b6457e060405160405180910390a35050565b828054620002119062000330565b90600052602060002090601f01602090048101928262000235576000855562000281565b82601f106200025057805160ff191683800117855562000281565b8280016001018555821562000281579182015b828111156200028057825182559160200191906001019062000263565b5b50905062000290919062000294565b5090565b5b80821115620002af57600081600090555060010162000295565b5090565b600081519050620002c4816200039a565b92915050565b600080600060608486031215620002e657620002e562000395565b5b6000620002f686828701620002b3565b93505060206200030986828701620002b3565b92505060406200031c86828701620002b3565b9150509250925092565b6000819050919050565b600060028204905060018216806200034957607f821691505b6020821081141562000360576200035f62000366565b5b50919050565b7f4e487b7100000000000000000000000000000000000000000000000000000000600052602260045260246000fd5b600080fd5b620003a58162000326565b8114620003b157600080fd5b50565b61363680620003c46000396000f3fe6080604052600436106101ee5760003560e01c806370a082311161010d578063a22cb465116100a0578063c66828621161006f578063c6682862146106ad578063c87b56dd146106d8578063d5abeb0114610715578063e985e9c514610740578063f2fde38b1461077d576101ee565b8063a22cb46514610602578063b071401b1461062b578063b88d4fde14610647578063c23dc68f14610670576101ee565b806394354fd0116100dc57806394354fd01461055357806395d89b411461057e57806399a2557a146105a9578063a0712d68146105e6576101ee565b806370a0823114610497578063715018a6146104d45780638462151c146104eb5780638da5cb5b14610528576101ee565b80633ccfd60b116101855780635bbb2177116101545780635bbb2177146103c75780635c975abb146104045780636352211e1461042f5780636c0360eb1461046c576101ee565b80633ccfd60b1461035c57806342842e0e1461036657806344a0d68a1461038f57806355f804b3146103ab576101ee565b8063136439dd116101c1578063136439dd146102c157806313faede6146102dd57806318160ddd1461030857806323b872dd14610333576101ee565b806301ffc9a7146101f357806306fdde0314610230578063081812fc1461025b578063095ea7b314610298575b600080fd5b3480156101ff57600080fd5b5061021a60048036038101906102159190612a6f565b6107a6565b6040516102279190612f4a565b60405180910390f35b34801561023c57600080fd5b50610245610838565b6040516102529190612f65565b60405180910390f35b34801561026757600080fd5b50610282600480360381019061027d9190612b12565b6108ca565b60405161028f9190612e9f565b60405180910390f35b3480156102a457600080fd5b506102bf60048036038101906102ba919061298f565b610949565b005b6102db60048036038101906102d69190612b12565b610a8d565b005b3480156102e957600080fd5b506102f2610a9f565b6040516102ff9190612fe2565b60405180910390f35b34801561031457600080fd5b5061031d610aa5565b60405161032a9190612fe2565b60405180910390f35b34801561033f57600080fd5b5061035a60048036038101906103559190612879565b610abc565b005b610364610de1565b005b34801561037257600080fd5b5061038d60048036038101906103889190612879565b610e69565b005b6103a960048036038101906103a49190612b12565b610e89565b005b6103c560048036038101906103c09190612ac9565b610e9b565b005b3480156103d357600080fd5b506103ee60048036038101906103e99190612a22565b610ebd565b6040516103fb9190612f06565b60405180910390f35b34801561041057600080fd5b50610419610f80565b6040516104269190612fe2565b60405180910390f35b34801561043b57600080fd5b5061045660048036038101906104519190612b12565b610f86565b6040516104639190612e9f565b60405180910390f35b34801561047857600080fd5b50610481610f98565b60405161048e9190612f65565b60405180910390f35b3480156104a357600080fd5b506104be60048036038101906104b9919061280c565b611026565b6040516104cb9190612fe2565b60405180910390f35b3480156104e057600080fd5b506104e96110df565b005b3480156104f757600080fd5b50610512600480360381019061050d919061280c565b6110f3565b60405161051f9190612f28565b60405180910390f35b34801561053457600080fd5b5061053d61123d565b60405161054a9190612e9f565b60405180910390f35b34801561055f57600080fd5b50610568611267565b6040516105759190612fe2565b60405180910390f35b34801561058a57600080fd5b5061059361126d565b6040516105a09190612f65565b60405180910390f35b3480156105b557600080fd5b506105d060048036038101906105cb91906129cf565b6112ff565b6040516105dd9190612f28565b60405180910390f35b61060060048036038101906105fb9190612b12565b611513565b005b34801561060e57600080fd5b506106296004803603810190610624919061294f565b6116aa565b005b61064560048036038101906106409190612b12565b611822565b005b34801561065357600080fd5b5061066e600480360381019061066991906128cc565b611834565b005b34801561067c57600080fd5b5061069760048036038101906106929190612b12565b6118a7565b6040516106a49190612fc7565b60405180910390f35b3480156106b957600080fd5b506106c2611911565b6040516106cf9190612f65565b60405180910390f35b3480156106e457600080fd5b506106ff60048036038101906106fa9190612b12565b61194a565b60405161070c9190612f65565b60405180910390f35b34801561072157600080fd5b5061072a611a1f565b6040516107379190612fe2565b60405180910390f35b34801561074c57600080fd5b5061076760048036038101906107629190612839565b611a25565b6040516107749190612f4a565b60405180910390f35b34801561078957600080fd5b506107a4600480360381019061079f919061280c565b611ab9565b005b60006301ffc9a760e01b827bffffffffffffffffffffffffffffffffffffffffffffffffffffffff1916148061080157506380ac58cd60e01b827bffffffffffffffffffffffffffffffffffffffffffffffffffffffff1916145b806108315750635b5e139f60e01b827bffffffffffffffffffffffffffffffffffffffffffffffffffffffff1916145b9050919050565b60606002805461084790613332565b80601f016020809104026020016040519081016040528092919081815260200182805461087390613332565b80156108c05780601f10610895576101008083540402835291602001916108c0565b820191906000526020600020905b8154815290600101906020018083116108a357829003601f168201915b5050505050905090565b60006108d582611b3d565b61090b576040517fcf4700e400000000000000000000000000000000000000000000000000000000815260040160405180910390fd5b6006600083815260200190815260200160002060000160009054906101000a900473ffffffffffffffffffffffffffffffffffffffff169050919050565b600061095482610f86565b90508073ffffffffffffffffffffffffffffffffffffffff16610975611b9c565b73ffffffffffffffffffffffffffffffffffffffff16146109d8576109a18161099c611b9c565b611a25565b6109d7576040517fcfb3b94200000000000000000000000000000000000000000000000000000000815260040160405180910390fd5b5b826006600084815260200190815260200160002060000160006101000a81548173ffffffffffffffffffffffffffffffffffffffff021916908373ffffffffffffffffffffffffffffffffffffffff160217905550818373ffffffffffffffffffffffffffffffffffffffff168273ffffffffffffffffffffffffffffffffffffffff167f8c5be1e5ebec7d5bd14f71427d1e84f3dd0314c0f7b2291e5b200ac8c7c3b92560405160405180910390a4505050565b610a95611ba4565b80600d8190555050565b600a5481565b6000610aaf611c22565b6001546000540303905090565b6000610ac782611c27565b90508373ffffffffffffffffffffffffffffffffffffffff168173ffffffffffffffffffffffffffffffffffffffff1614610b2e576040517fa114810000000000000000000000000000000000000000000000000000000000815260040160405180910390fd5b600080610b3a84611cf5565b91509150610b508187610b4b611b9c565b611d1c565b610b9c57610b6586610b60611b9c565b611a25565b610b9b576040517f59c896be00000000000000000000000000000000000000000000000000000000815260040160405180910390fd5b5b600073ffffffffffffffffffffffffffffffffffffffff168573ffffffffffffffffffffffffffffffffffffffff161415610c03576040517fea553b3400000000000000000000000000000000000000000000000000000000815260040160405180910390fd5b610c108686866001611d60565b8015610c1b57600082555b600560008773ffffffffffffffffffffffffffffffffffffffff1673ffffffffffffffffffffffffffffffffffffffff168152602001908152602001600020600081546001900391905081905550600560008673ffffffffffffffffffffffffffffffffffffffff1673ffffffffffffffffffffffffffffffffffffffff1681526020019081526020016000206000815460010191905081905550610ce985610cc5888887611d66565b7c020000000000000000000000000000000000000000000000000000000017611d8e565b600460008681526020019081526020016000208190555060007c020000000000000000000000000000000000000000000000000000000084161415610d71576000600185019050600060046000838152602001908152602001600020541415610d6f576000548114610d6e578360046000838152602001908152602001600020819055505b5b505b838573ffffffffffffffffffffffffffffffffffffffff168773ffffffffffffffffffffffffffffffffffffffff167fddf252ad1be2c89b69c2b068fc378daa952ba7f163c4a11628f55a4df523b3ef60405160405180910390a4610dd98686866001611db9565b505050505050565b610de9611ba4565b6000610df361123d565b73ffffffffffffffffffffffffffffffffffffffff1647604051610e1690612e8a565b60006040518083038185875af1925050503d8060008114610e53576040519150601f19603f3d011682016040523d82523d6000602084013e610e58565b606091505b5050905080610e6657600080fd5b50565b610e8483838360405180602001604052806000815250611834565b505050565b610e91611ba4565b80600a8190555050565b610ea3611ba4565b8060099080519060200190610eb992919061257b565b5050565b6060600083839050905060008167ffffffffffffffff811115610ee357610ee26134cb565b5b604051908082528060200260200182016040528015610f1c57816020015b610f09612601565b815260200190600190039081610f015790505b50905060005b828114610f7457610f4b868683818110610f3f57610f3e61349c565b5b905060200201356118a7565b828281518110610f5e57610f5d61349c565b5b6020026020010181905250806001019050610f22565b50809250505092915050565b600d5481565b6000610f9182611c27565b9050919050565b60098054610fa590613332565b80601f0160208091040260200160405190810160405280929190818152602001828054610fd190613332565b801561101e5780601f10610ff35761010080835404028352916020019161101e565b820191906000526020600020905b81548152906001019060200180831161100157829003601f168201915b505050505081565b60008073ffffffffffffffffffffffffffffffffffffffff168273ffffffffffffffffffffffffffffffffffffffff16141561108e576040517f8f4eb60400000000000000000000000000000000000000000000000000000000815260040160405180910390fd5b67ffffffffffffffff600560008473ffffffffffffffffffffffffffffffffffffffff1673ffffffffffffffffffffffffffffffffffffffff16815260200190815260200160002054169050919050565b6110e7611ba4565b6110f16000611dbf565b565b6060600080600061110385611026565b905060008167ffffffffffffffff811115611121576111206134cb565b5b60405190808252806020026020018201604052801561114f5781602001602082028036833780820191505090505b50905061115a612601565b6000611164611c22565b90505b83861461122f5761117781611e85565b915081604001511561118857611224565b600073ffffffffffffffffffffffffffffffffffffffff16826000015173ffffffffffffffffffffffffffffffffffffffff16146111c857816000015194505b8773ffffffffffffffffffffffffffffffffffffffff168573ffffffffffffffffffffffffffffffffffffffff16141561122357808387806001019850815181106112165761121561349c565b5b6020026020010181815250505b5b806001019050611167565b508195505050505050919050565b6000600860009054906101000a900473ffffffffffffffffffffffffffffffffffffffff16905090565b600c5481565b60606003805461127c90613332565b80601f01602080910402602001604051908101604052809291908181526020018280546112a890613332565b80156112f55780601f106112ca576101008083540402835291602001916112f5565b820191906000526020600020905b8154815290600101906020018083116112d857829003601f168201915b5050505050905090565b606081831061133a576040517f32c1995a00000000000000000000000000000000000000000000000000000000815260040160405180910390fd5b600080611345611eb0565b905061134f611c22565b8510156113615761135e611c22565b94505b8084111561136d578093505b600061137887611026565b90508486101561139b576000868603905081811015611395578091505b506113a0565b600090505b60008167ffffffffffffffff8111156113bc576113bb6134cb565b5b6040519080825280602002602001820160405280156113ea5781602001602082028036833780820191505090505b5090506000821415611402578094505050505061150c565b600061140d886118a7565b90506000816040015161142257816000015190505b60008990505b8881141580156114385750848714155b156114fe5761144681611e85565b9250826040015115611457576114f3565b600073ffffffffffffffffffffffffffffffffffffffff16836000015173ffffffffffffffffffffffffffffffffffffffff161461149757826000015191505b8a73ffffffffffffffffffffffffffffffffffffffff168273ffffffffffffffffffffffffffffffffffffffff1614156114f257808488806001019950815181106114e5576114e461349c565b5b6020026020010181815250505b5b806001019050611428565b508583528296505050505050505b9392505050565b6001600d541415611550576040517f28d729c100000000000000000000000000000000000000000000000000000000815260040160405180910390fd5b600081141561158b576040517f9ff6d75900000000000000000000000000000000000000000000000000000000815260040160405180910390fd5b600c548111156115c7576040517f25fb47d200000000000000000000000000000000000000000000000000000000815260040160405180910390fd5b60006115d1610aa5565b9050600b5482826115e29190613144565b111561161a576040517f96bd0f2300000000000000000000000000000000000000000000000000000000815260040160405180910390fd5b61162261123d565b73ffffffffffffffffffffffffffffffffffffffff163373ffffffffffffffffffffffffffffffffffffffff161461169c5781600a5461166291906131cb565b34101561169b576040517f45bd468900000000000000000000000000000000000000000000000000000000815260040160405180910390fd5b5b6116a63383611eb9565b5050565b6116b2611b9c565b73ffffffffffffffffffffffffffffffffffffffff168273ffffffffffffffffffffffffffffffffffffffff161415611717576040517fb06307db00000000000000000000000000000000000000000000000000000000815260040160405180910390fd5b8060076000611724611b9c565b73ffffffffffffffffffffffffffffffffffffffff1673ffffffffffffffffffffffffffffffffffffffff16815260200190815260200160002060008473ffffffffffffffffffffffffffffffffffffffff1673ffffffffffffffffffffffffffffffffffffffff16815260200190815260200160002060006101000a81548160ff0219169083151502179055508173ffffffffffffffffffffffffffffffffffffffff166117d1611b9c565b73ffffffffffffffffffffffffffffffffffffffff167f17307eab39ab6107e8899845ad3d59bd9653f200f220920489ca2b5937696c31836040516118169190612f4a565b60405180910390a35050565b61182a611ba4565b80600c8190555050565b61183f848484610abc565b60008373ffffffffffffffffffffffffffffffffffffffff163b146118a15761186a84848484611ed7565b6118a0576040517fd1a57ed600000000000000000000000000000000000000000000000000000000815260040160405180910390fd5b5b50505050565b6118af612601565b6118b7612601565b6118bf611c22565b8310806118d357506118cf611eb0565b8310155b156118e1578091505061190c565b6118ea83611e85565b90508060400151156118ff578091505061190c565b61190883612037565b9150505b919050565b6040518060400160405280600581526020017f2e6a736f6e00000000000000000000000000000000000000000000000000000081525081565b606061195582611b3d565b61198b576040517f77b1a4e000000000000000000000000000000000000000000000000000000000815260040160405180910390fd5b6000611995612057565b905060008151116119b55760405180602001604052806000815250611a17565b806119bf846120e9565b6040518060400160405280600581526020017f2e6a736f6e000000000000000000000000000000000000000000000000000000815250604051602001611a0793929190612e59565b6040516020818303038152906040525b915050919050565b600b5481565b6000600760008473ffffffffffffffffffffffffffffffffffffffff1673ffffffffffffffffffffffffffffffffffffffff16815260200190815260200160002060008373ffffffffffffffffffffffffffffffffffffffff1673ffffffffffffffffffffffffffffffffffffffff16815260200190815260200160002060009054906101000a900460ff16905092915050565b611ac1611ba4565b600073ffffffffffffffffffffffffffffffffffffffff168173ffffffffffffffffffffffffffffffffffffffff161415611b31576040517f08c379a0000000000000000000000000000000000000000000000000000000008152600401611b2890612f87565b60405180910390fd5b611b3a81611dbf565b50565b600081611b48611c22565b11158015611b57575060005482105b8015611b95575060007c0100000000000000000000000000000000000000000000000000000000600460008581526020019081526020016000205416145b9050919050565b600033905090565b611bac61224a565b73ffffffffffffffffffffffffffffffffffffffff16611bca61123d565b73ffffffffffffffffffffffffffffffffffffffff1614611c20576040517f08c379a0000000000000000000000000000000000000000000000000000000008152600401611c1790612fa7565b60405180910390fd5b565b600090565b60008082905080611c36611c22565b11611cbe57600054811015611cbd5760006004600083815260200190815260200160002054905060007c010000000000000000000000000000000000000000000000000000000082161415611cbb575b6000811415611cb1576004600083600190039350838152602001908152602001600020549050611c86565b8092505050611cf0565b505b5b6040517fdf2d9b4200000000000000000000000000000000000000000000000000000000815260040160405180910390fd5b919050565b60008060006006600085815260200190815260200160002090508092508254915050915091565b600073ffffffffffffffffffffffffffffffffffffffff8316925073ffffffffffffffffffffffffffffffffffffffff821691508382148383141790509392505050565b50505050565b60008060e883901c905060e8611d7d868684612252565b62ffffff16901b9150509392505050565b600073ffffffffffffffffffffffffffffffffffffffff83169250814260a01b178317905092915050565b50505050565b6000600860009054906101000a900473ffffffffffffffffffffffffffffffffffffffff16905081600860006101000a81548173ffffffffffffffffffffffffffffffffffffffff021916908373ffffffffffffffffffffffffffffffffffffffff1602179055508173ffffffffffffffffffffffffffffffffffffffff168173ffffffffffffffffffffffffffffffffffffffff167f8be0079c531659141344cd1fd0a4f28419497f9722a3daafe3b4186f6b6457e060405160405180910390a35050565b611e8d612601565b611ea9600460008481526020019081526020016000205461225b565b9050919050565b60008054905090565b611ed3828260405180602001604052806000815250612311565b5050565b60008373ffffffffffffffffffffffffffffffffffffffff1663150b7a02611efd611b9c565b8786866040518563ffffffff1660e01b8152600401611f1f9493929190612eba565b602060405180830381600087803b158015611f3957600080fd5b505af1925050508015611f6a57506040513d601f19601f82011682018060405250810190611f679190612a9c565b60015b611fe4573d8060008114611f9a576040519150601f19603f3d011682016040523d82523d6000602084013e611f9f565b606091505b50600081511415611fdc576040517fd1a57ed600000000000000000000000000000000000000000000000000000000815260040160405180910390fd5b805181602001fd5b63150b7a0260e01b7bffffffffffffffffffffffffffffffffffffffffffffffffffffffff1916817bffffffffffffffffffffffffffffffffffffffffffffffffffffffff191614915050949350505050565b61203f612601565b61205061204b83611c27565b61225b565b9050919050565b60606009805461206690613332565b80601f016020809104026020016040519081016040528092919081815260200182805461209290613332565b80156120df5780601f106120b4576101008083540402835291602001916120df565b820191906000526020600020905b8154815290600101906020018083116120c257829003601f168201915b5050505050905090565b60606000821415612131576040518060400160405280600181526020017f30000000000000000000000000000000000000000000000000000000000000008152509050612245565b600082905060005b6000821461216357808061214c90613395565b915050600a8261215c919061319a565b9150612139565b60008167ffffffffffffffff81111561217f5761217e6134cb565b5b6040519080825280601f01601f1916602001820160405280156121b15781602001600182028036833780820191505090505b5090505b6000851461223e576001826121ca9190613225565b9150600a856121d991906133de565b60306121e59190613144565b60f81b8183815181106121fb576121fa61349c565b5b60200101907effffffffffffffffffffffffffffffffffffffffffffffffffffffffffffff1916908160001a905350600a85612237919061319a565b94506121b5565b8093505050505b919050565b600033905090565b60009392505050565b612263612601565b81816000019073ffffffffffffffffffffffffffffffffffffffff16908173ffffffffffffffffffffffffffffffffffffffff168152505060a082901c816020019067ffffffffffffffff16908167ffffffffffffffff168152505060007c01000000000000000000000000000000000000000000000000000000008316141581604001901515908115158152505060e882901c816060019062ffffff16908162ffffff1681525050919050565b61231b83836123ae565b60008373ffffffffffffffffffffffffffffffffffffffff163b146123a957600080549050600083820390505b61235b6000868380600101945086611ed7565b612391576040517fd1a57ed600000000000000000000000000000000000000000000000000000000815260040160405180910390fd5b8181106123485781600054146123a657600080fd5b50505b505050565b60008054905060008214156123ef576040517fb562e8dd00000000000000000000000000000000000000000000000000000000815260040160405180910390fd5b6123fc6000848385611d60565b600160406001901b178202600560008573ffffffffffffffffffffffffffffffffffffffff1673ffffffffffffffffffffffffffffffffffffffff16815260200190815260200160002060008282540192505081905550612473836124646000866000611d66565b61246d8561256b565b17611d8e565b6004600083815260200190815260200160002081905550600080838301905073ffffffffffffffffffffffffffffffffffffffff85169150828260007fddf252ad1be2c89b69c2b068fc378daa952ba7f163c4a11628f55a4df523b3ef600080a4600183015b81811461251457808360007fddf252ad1be2c89b69c2b068fc378daa952ba7f163c4a11628f55a4df523b3ef600080a46001810190506124d9565b506000821415612550576040517f2e07630000000000000000000000000000000000000000000000000000000000815260040160405180910390fd5b8060008190555050506125666000848385611db9565b505050565b60006001821460e11b9050919050565b82805461258790613332565b90600052602060002090601f0160209004810192826125a957600085556125f0565b82601f106125c257805160ff19168380011785556125f0565b828001600101855582156125f0579182015b828111156125ef5782518255916020019190600101906125d4565b5b5090506125fd9190612650565b5090565b6040518060800160405280600073ffffffffffffffffffffffffffffffffffffffff168152602001600067ffffffffffffffff168152602001600015158152602001600062ffffff1681525090565b5b80821115612669576000816000905550600101612651565b5090565b600061268061267b84613022565b612ffd565b90508281526020810184848401111561269c5761269b613509565b5b6126a78482856132f0565b509392505050565b60006126c26126bd84613053565b612ffd565b9050828152602081018484840111156126de576126dd613509565b5b6126e98482856132f0565b509392505050565b600081359050612700816135a4565b92915050565b60008083601f84011261271c5761271b6134ff565b5b8235905067ffffffffffffffff811115612739576127386134fa565b5b60208301915083602082028301111561275557612754613504565b5b9250929050565b60008135905061276b816135bb565b92915050565b600081359050612780816135d2565b92915050565b600081519050612795816135d2565b92915050565b600082601f8301126127b0576127af6134ff565b5b81356127c084826020860161266d565b91505092915050565b600082601f8301126127de576127dd6134ff565b5b81356127ee8482602086016126af565b91505092915050565b600081359050612806816135e9565b92915050565b60006020828403121561282257612821613513565b5b6000612830848285016126f1565b91505092915050565b600080604083850312156128505761284f613513565b5b600061285e858286016126f1565b925050602061286f858286016126f1565b9150509250929050565b60008060006060848603121561289257612891613513565b5b60006128a0868287016126f1565b93505060206128b1868287016126f1565b92505060406128c2868287016127f7565b9150509250925092565b600080600080608085870312156128e6576128e5613513565b5b60006128f4878288016126f1565b9450506020612905878288016126f1565b9350506040612916878288016127f7565b925050606085013567ffffffffffffffff8111156129375761293661350e565b5b6129438782880161279b565b91505092959194509250565b6000806040838503121561296657612965613513565b5b6000612974858286016126f1565b92505060206129858582860161275c565b9150509250929050565b600080604083850312156129a6576129a5613513565b5b60006129b4858286016126f1565b92505060206129c5858286016127f7565b9150509250929050565b6000806000606084860312156129e8576129e7613513565b5b60006129f6868287016126f1565b9350506020612a07868287016127f7565b9250506040612a18868287016127f7565b9150509250925092565b60008060208385031215612a3957612a38613513565b5b600083013567ffffffffffffffff811115612a5757612a5661350e565b5b612a6385828601612706565b92509250509250929050565b600060208284031215612a8557612a84613513565b5b6000612a9384828501612771565b91505092915050565b600060208284031215612ab257612ab1613513565b5b6000612ac084828501612786565b91505092915050565b600060208284031215612adf57612ade613513565b5b600082013567ffffffffffffffff811115612afd57612afc61350e565b5b612b09848285016127c9565b91505092915050565b600060208284031215612b2857612b27613513565b5b6000612b36848285016127f7565b91505092915050565b6000612b4b8383612d73565b60808301905092915050565b6000612b638383612e2c565b60208301905092915050565b612b7881613259565b82525050565b612b8781613259565b82525050565b6000612b98826130a4565b612ba281856130ea565b9350612bad83613084565b8060005b83811015612bde578151612bc58882612b3f565b9750612bd0836130d0565b925050600181019050612bb1565b5085935050505092915050565b6000612bf6826130af565b612c0081856130fb565b9350612c0b83613094565b8060005b83811015612c3c578151612c238882612b57565b9750612c2e836130dd565b925050600181019050612c0f565b5085935050505092915050565b612c528161326b565b82525050565b612c618161326b565b82525050565b6000612c72826130ba565b612c7c818561310c565b9350612c8c8185602086016132ff565b612c9581613518565b840191505092915050565b6000612cab826130c5565b612cb58185613128565b9350612cc58185602086016132ff565b612cce81613518565b840191505092915050565b6000612ce4826130c5565b612cee8185613139565b9350612cfe8185602086016132ff565b80840191505092915050565b6000612d17602683613128565b9150612d2282613529565b604082019050919050565b6000612d3a602083613128565b9150612d4582613578565b602082019050919050565b6000612d5d60008361311d565b9150612d68826135a1565b600082019050919050565b608082016000820151612d896000850182612b6f565b506020820151612d9c6020850182612e4a565b506040820151612daf6040850182612c49565b506060820151612dc26060850182612e1d565b50505050565b608082016000820151612dde6000850182612b6f565b506020820151612df16020850182612e4a565b506040820151612e046040850182612c49565b506060820151612e176060850182612e1d565b50505050565b612e26816132c3565b82525050565b612e35816132d2565b82525050565b612e44816132d2565b82525050565b612e53816132dc565b82525050565b6000612e658286612cd9565b9150612e718285612cd9565b9150612e7d8284612cd9565b9150819050949350505050565b6000612e9582612d50565b9150819050919050565b6000602082019050612eb46000830184612b7e565b92915050565b6000608082019050612ecf6000830187612b7e565b612edc6020830186612b7e565b612ee96040830185612e3b565b8181036060830152612efb8184612c67565b905095945050505050565b60006020820190508181036000830152612f208184612b8d565b905092915050565b60006020820190508181036000830152612f428184612beb565b905092915050565b6000602082019050612f5f6000830184612c58565b92915050565b60006020820190508181036000830152612f7f8184612ca0565b905092915050565b60006020820190508181036000830152612fa081612d0a565b9050919050565b60006020820190508181036000830152612fc081612d2d565b9050919050565b6000608082019050612fdc6000830184612dc8565b92915050565b6000602082019050612ff76000830184612e3b565b92915050565b6000613007613018565b90506130138282613364565b919050565b6000604051905090565b600067ffffffffffffffff82111561303d5761303c6134cb565b5b61304682613518565b9050602081019050919050565b600067ffffffffffffffff82111561306e5761306d6134cb565b5b61307782613518565b9050602081019050919050565b6000819050602082019050919050565b6000819050602082019050919050565b600081519050919050565b600081519050919050565b600081519050919050565b600081519050919050565b6000602082019050919050565b6000602082019050919050565b600082825260208201905092915050565b600082825260208201905092915050565b600082825260208201905092915050565b600081905092915050565b600082825260208201905092915050565b600081905092915050565b600061314f826132d2565b915061315a836132d2565b9250827fffffffffffffffffffffffffffffffffffffffffffffffffffffffffffffffff0382111561318f5761318e61340f565b5b828201905092915050565b60006131a5826132d2565b91506131b0836132d2565b9250826131c0576131bf61343e565b5b828204905092915050565b60006131d6826132d2565b91506131e1836132d2565b9250817fffffffffffffffffffffffffffffffffffffffffffffffffffffffffffffffff048311821515161561321a5761321961340f565b5b828202905092915050565b6000613230826132d2565b915061323b836132d2565b92508282101561324e5761324d61340f565b5b828203905092915050565b6000613264826132a3565b9050919050565b60008115159050919050565b60007fffffffff0000000000000000000000000000000000000000000000000000000082169050919050565b600073ffffffffffffffffffffffffffffffffffffffff82169050919050565b600062ffffff82169050919050565b6000819050919050565b600067ffffffffffffffff82169050919050565b82818337600083830152505050565b60005b8381101561331d578082015181840152602081019050613302565b8381111561332c576000848401525b50505050565b6000600282049050600182168061334a57607f821691505b6020821081141561335e5761335d61346d565b5b50919050565b61336d82613518565b810181811067ffffffffffffffff8211171561338c5761338b6134cb565b5b80604052505050565b60006133a0826132d2565b91507fffffffffffffffffffffffffffffffffffffffffffffffffffffffffffffffff8214156133d3576133d261340f565b5b600182019050919050565b60006133e9826132d2565b91506133f4836132d2565b9250826134045761340361343e565b5b828206905092915050565b7f4e487b7100000000000000000000000000000000000000000000000000000000600052601160045260246000fd5b7f4e487b7100000000000000000000000000000000000000000000000000000000600052601260045260246000fd5b7f4e487b7100000000000000000000000000000000000000000000000000000000600052602260045260246000fd5b7f4e487b7100000000000000000000000000000000000000000000000000000000600052603260045260246000fd5b7f4e487b7100000000000000000000000000000000000000000000000000000000600052604160045260246000fd5b600080fd5b600080fd5b600080fd5b600080fd5b600080fd5b600080fd5b6000601f19601f8301169050919050565b7f4f776e61626c653a206e6577206f776e657220697320746865207a65726f206160008201527f6464726573730000000000000000000000000000000000000000000000000000602082015250565b7f4f776e61626c653a2063616c6c6572206973206e6f7420746865206f776e6572600082015250565b50565b6135ad81613259565b81146135b857600080fd5b50565b6135c48161326b565b81146135cf57600080fd5b50565b6135db81613277565b81146135e657600080fd5b50565b6135f2816132d2565b81146135fd57600080fd5b5056fea2646970667358221220d3a31a99a3e9a40303bd46e03ae71ac096f88c53cc5f7c2edd34f2c52a8f075064736f6c63430008070033",
  "linkReferences": {},
  "deployedLinkReferences": {}
}