{
  "_format": "hh-sol-artifact-1",
  "contractName": "NFTStakingVault",
  "sourceName": "contracts/NFTStakingVault.sol",
  "abi": [
    {
      "inputs": [
        {
          "internalType": "address",
          "name": "_nftAddress",
          "type": "address"
        },
        {
          "internalType": "address",
          "name": "_tokenAddress",
          "type": "address"
        }
      ],
      "stateMutability": "nonpayable",
      "type": "constructor"
    },
    {
      "inputs": [],
      "name": "NFTStakingVault__ItemAlreadyStaked",
      "type": "error"
    },
    {
      "inputs": [],
      "name": "NFTStakingVault__NotItemOwner",
      "type": "error"
    },
    {
      "anonymous": false,
      "inputs": [
        {
          "indexed": false,
          "internalType": "address",
          "name": "owner",
          "type": "address"
        },
        {
          "indexed": false,
          "internalType": "uint256",
          "name": "reward",
          "type": "uint256"
        }
      ],
      "name": "Claimed",
      "type": "event"
    },
    {
      "anonymous": false,
      "inputs": [
        {
          "indexed": false,
          "internalType": "uint256",
          "name": "tokenId",
          "type": "uint256"
        },
        {
          "indexed": false,
          "internalType": "address",
          "name": "owner",
          "type": "address"
        },
        {
          "indexed": false,
          "internalType": "uint256",
          "name": "timestamp",
          "type": "uint256"
        }
      ],
      "name": "ItemStaked",
      "type": "event"
    },
    {
      "anonymous": false,
      "inputs": [
        {
          "indexed": false,
          "internalType": "uint256",
          "name": "tokenId",
          "type": "uint256"
        },
        {
          "indexed": false,
          "internalType": "address",
          "name": "owner",
          "type": "address"
        },
        {
          "indexed": false,
          "internalType": "uint256",
          "name": "timestamp",
          "type": "uint256"
        }
      ],
      "name": "ItemUnstaked",
      "type": "event"
    },
    {
      "anonymous": false,
      "inputs": [
        {
          "indexed": true,
          "internalType": "address",
          "name": "previousOwner",
          "type": "address"
        },
        {
          "indexed": true,
          "internalType": "address",
          "name": "newOwner",
          "type": "address"
        }
      ],
      "name": "OwnershipTransferred",
      "type": "event"
    },
    {
      "inputs": [
        {
          "internalType": "address",
          "name": "user",
          "type": "address"
        }
      ],
      "name": "balanceOf",
      "outputs": [
        {
          "internalType": "uint256",
          "name": "nftStakedbalance",
          "type": "uint256"
        }
      ],
      "stateMutability": "view",
      "type": "function"
    },
    {
      "inputs": [
        {
          "internalType": "uint256[]",
          "name": "tokenIds",
          "type": "uint256[]"
        }
      ],
      "name": "claim",
      "outputs": [],
      "stateMutability": "nonpayable",
      "type": "function"
    },
    {
      "inputs": [
        {
          "internalType": "uint256",
          "name": "stakingPeriod",
          "type": "uint256"
        }
      ],
      "name": "getDailyReward",
      "outputs": [
        {
          "internalType": "uint256",
          "name": "dailyReward",
          "type": "uint256"
        }
      ],
      "stateMutability": "pure",
      "type": "function"
    },
    {
      "inputs": [
        {
          "internalType": "uint256",
          "name": "_tokenId",
          "type": "uint256"
        }
      ],
      "name": "getRewardEarnedPerNft",
      "outputs": [
        {
          "internalType": "uint256",
          "name": "rewardEarned",
          "type": "uint256"
        }
      ],
      "stateMutability": "view",
      "type": "function"
    },
    {
      "inputs": [
        {
          "internalType": "address",
          "name": "user",
          "type": "address"
        }
      ],
      "name": "getTotalRewardEarned",
      "outputs": [
        {
          "internalType": "uint256",
          "name": "rewardEarned",
          "type": "uint256"
        }
      ],
      "stateMutability": "view",
      "type": "function"
    },
    {
      "inputs": [
        {
          "internalType": "address",
          "name": "",
          "type": "address"
        },
        {
          "internalType": "address",
          "name": "",
          "type": "address"
        },
        {
          "internalType": "uint256",
          "name": "",
          "type": "uint256"
        },
        {
          "internalType": "bytes",
          "name": "",
          "type": "bytes"
        }
      ],
      "name": "onERC721Received",
      "outputs": [
        {
          "internalType": "bytes4",
          "name": "",
          "type": "bytes4"
        }
      ],
      "stateMutability": "pure",
      "type": "function"
    },
    {
      "inputs": [],
      "name": "owner",
      "outputs": [
        {
          "internalType": "address",
          "name": "",
          "type": "address"
        }
      ],
      "stateMutability": "view",
      "type": "function"
    },
    {
      "inputs": [],
      "name": "renounceOwnership",
      "outputs": [],
      "stateMutability": "nonpayable",
      "type": "function"
    },
    {
      "inputs": [
        {
          "internalType": "uint256[]",
          "name": "tokenIds",
          "type": "uint256[]"
        }
      ],
      "name": "stake",
      "outputs": [],
      "stateMutability": "nonpayable",
      "type": "function"
    },
    {
      "inputs": [
        {
          "internalType": "address",
          "name": "user",
          "type": "address"
        }
      ],
      "name": "tokensOfOwner",
      "outputs": [
        {
          "internalType": "uint256[]",
          "name": "tokens",
          "type": "uint256[]"
        }
      ],
      "stateMutability": "view",
      "type": "function"
    },
    {
      "inputs": [],
      "name": "totalItemsStaked",
      "outputs": [
        {
          "internalType": "uint256",
          "name": "",
          "type": "uint256"
        }
      ],
      "stateMutability": "view",
      "type": "function"
    },
    {
      "inputs": [
        {
          "internalType": "address",
          "name": "newOwner",
          "type": "address"
        }
      ],
      "name": "transferOwnership",
      "outputs": [],
      "stateMutability": "nonpayable",
      "type": "function"
    },
    {
      "inputs": [
        {
          "internalType": "uint256[]",
          "name": "tokenIds",
          "type": "uint256[]"
        }
      ],
      "name": "unstake",
      "outputs": [],
      "stateMutability": "nonpayable",
      "type": "function"
    }
  ],
  "bytecode": "0x60806040523480156200001157600080fd5b5060405162001cfe38038062001cfe8339818101604052810190620000379190620001c4565b620000576200004b620000e160201b60201c565b620000e960201b60201c565b81600260006101000a81548173ffffffffffffffffffffffffffffffffffffffff021916908373ffffffffffffffffffffffffffffffffffffffff16021790555080600360006101000a81548173ffffffffffffffffffffffffffffffffffffffff021916908373ffffffffffffffffffffffffffffffffffffffff16021790555050506200025e565b600033905090565b60008060009054906101000a900473ffffffffffffffffffffffffffffffffffffffff169050816000806101000a81548173ffffffffffffffffffffffffffffffffffffffff021916908373ffffffffffffffffffffffffffffffffffffffff1602179055508173ffffffffffffffffffffffffffffffffffffffff168173ffffffffffffffffffffffffffffffffffffffff167f8be0079c531659141344cd1fd0a4f28419497f9722a3daafe3b4186f6b6457e060405160405180910390a35050565b600081519050620001be8162000244565b92915050565b60008060408385031215620001de57620001dd6200023f565b5b6000620001ee85828601620001ad565b92505060206200020185828601620001ad565b9150509250929050565b600062000218826200021f565b9050919050565b600073ffffffffffffffffffffffffffffffffffffffff82169050919050565b600080fd5b6200024f816200020b565b81146200025b57600080fd5b50565b611a90806200026e6000396000f3fe608060405234801561001057600080fd5b50600436106100cf5760003560e01c806370a082311161008c5780638da5cb5b116100665780638da5cb5b14610224578063d88d200014610242578063e449f34114610272578063f2fde38b1461028e576100cf565b806370a08231146101ba578063715018a6146101ea5780638462151c146101f4576100cf565b80630fbf0a93146100d4578063150b7a02146100f057806333e5877914610120578063454938e01461013e5780635704589c1461016e5780636ba4c1381461019e575b600080fd5b6100ee60048036038101906100e991906113c3565b6102aa565b005b61010a6004803603810190610105919061133b565b610614565b6040516101179190611622565b60405180910390f35b610128610629565b604051610135919061169d565b60405180910390f35b610158600480360381019061015391906112e1565b61062f565b604051610165919061169d565b60405180910390f35b61018860048036038101906101839190611410565b61070e565b604051610195919061169d565b60405180910390f35b6101b860048036038101906101b391906113c3565b61079c565b005b6101d460048036038101906101cf91906112e1565b6107ad565b6040516101e1919061169d565b60405180910390f35b6101f26108df565b005b61020e600480360381019061020991906112e1565b6108f3565b60405161021b9190611600565b60405180910390f35b61022c610ac6565b6040516102399190611585565b60405180910390f35b61025c60048036038101906102579190611410565b610aef565b604051610269919061169d565b60405180910390f35b61028c600480360381019061028791906113c3565b610b01565b005b6102a860048036038101906102a391906112e1565b610b12565b005b600080600084849050905060005b818110156105f8578585828181106102d3576102d2611914565b5b905060200201359350600073ffffffffffffffffffffffffffffffffffffffff166004600086815260200190815260200160002060000160009054906101000a900473ffffffffffffffffffffffffffffffffffffffff1673ffffffffffffffffffffffffffffffffffffffff1614610378576040517fc706acb600000000000000000000000000000000000000000000000000000000815260040160405180910390fd5b3373ffffffffffffffffffffffffffffffffffffffff16600260009054906101000a900473ffffffffffffffffffffffffffffffffffffffff1673ffffffffffffffffffffffffffffffffffffffff16636352211e866040518263ffffffff1660e01b81526004016103ea919061169d565b60206040518083038186803b15801561040257600080fd5b505afa158015610416573d6000803e3d6000fd5b505050506040513d601f19601f8201168201806040525081019061043a919061130e565b73ffffffffffffffffffffffffffffffffffffffff1614610487576040517ff653d4c600000000000000000000000000000000000000000000000000000000815260040160405180910390fd5b600260009054906101000a900473ffffffffffffffffffffffffffffffffffffffff1673ffffffffffffffffffffffffffffffffffffffff166342842e0e3330876040518463ffffffff1660e01b81526004016104e6939291906115a0565b600060405180830381600087803b15801561050057600080fd5b505af1158015610514573d6000803e3d6000fd5b5050505060405180604001604052803373ffffffffffffffffffffffffffffffffffffffff168152602001428152506004600086815260200190815260200160002060008201518160000160006101000a81548173ffffffffffffffffffffffffffffffffffffffff021916908373ffffffffffffffffffffffffffffffffffffffff160217905550602082015181600101559050507f718e21c56085c799f7e177a1bd6691cdbf9c929d9760133b991577c4887152908433426040516105dd939291906116b8565b60405180910390a182806001019350508060010190506102b8565b50816001546106079190611739565b6001819055505050505050565b600063150b7a0260e01b905095945050505050565b60015481565b600080600061063d846108f3565b905060008151905060005b818110156106f65760006004600085848151811061066957610668611914565b5b6020026020010151815260200190815260200160002060010154905060008142610693919061181a565b905060006106a082610b96565b905062015180670de0b6b3a7640000838360646106bd91906117c0565b6106c791906117c0565b6106d191906117c0565b6106db919061178f565b876106e69190611739565b9650836001019350505050610648565b50606483610704919061178f565b9350505050919050565b6000806004600084815260200190815260200160002060010154905060008142610738919061181a565b9050600061074582610b96565b9050600062015180670de0b6b3a76400008484606461076491906117c0565b61076e91906117c0565b61077891906117c0565b610782919061178f565b9050606481610791919061178f565b945050505050919050565b6107a93383836000610c0e565b5050565b600080600260009054906101000a900473ffffffffffffffffffffffffffffffffffffffff1673ffffffffffffffffffffffffffffffffffffffff166318160ddd6040518163ffffffff1660e01b815260040160206040518083038186803b15801561081857600080fd5b505afa15801561082c573d6000803e3d6000fd5b505050506040513d601f19601f82011682018060405250810190610850919061143d565b905060005b8181116108d8578373ffffffffffffffffffffffffffffffffffffffff166004600083815260200190815260200160002060000160009054906101000a900473ffffffffffffffffffffffffffffffffffffffff1673ffffffffffffffffffffffffffffffffffffffff1614156108cd576001830192505b806001019050610855565b5050919050565b6108e7610e80565b6108f16000610efe565b565b60606000610900836107ad565b90506000600260009054906101000a900473ffffffffffffffffffffffffffffffffffffffff1673ffffffffffffffffffffffffffffffffffffffff166318160ddd6040518163ffffffff1660e01b815260040160206040518083038186803b15801561096c57600080fd5b505afa158015610980573d6000803e3d6000fd5b505050506040513d601f19601f820116820180604052508101906109a4919061143d565b90508167ffffffffffffffff8111156109c0576109bf611943565b5b6040519080825280602002602001820160405280156109ee5781602001602082028036833780820191505090505b509250600080831415610a0357505050610ac1565b60005b828111610abc578573ffffffffffffffffffffffffffffffffffffffff166004600083815260200190815260200160002060000160009054906101000a900473ffffffffffffffffffffffffffffffffffffffff1673ffffffffffffffffffffffffffffffffffffffff161415610aa05780858381518110610a8b57610a8a611914565b5b60200260200101818152505081806001019250505b83821415610ab15750505050610ac1565b806001019050610a06565b505050505b919050565b60008060009054906101000a900473ffffffffffffffffffffffffffffffffffffffff16905090565b6000610afa82610b96565b9050919050565b610b0e3383836001610c0e565b5050565b610b1a610e80565b600073ffffffffffffffffffffffffffffffffffffffff168173ffffffffffffffffffffffffffffffffffffffff161415610b8a576040517f08c379a0000000000000000000000000000000000000000000000000000000008152600401610b819061163d565b60405180910390fd5b610b9381610efe565b50565b600062278d008211610bab5760019050610c09565b62278d006003610bbb91906117c0565b821015610bcb5760029050610c08565b62278d006006610bdb91906117c0565b821015610beb5760049050610c07565b62278d006006610bfb91906117c0565b8210610c0657600890505b5b5b5b919050565b60008060008086869050905060005b81811015610d8357878782818110610c3857610c37611914565b5b9050602002013594508873ffffffffffffffffffffffffffffffffffffffff166004600087815260200190815260200160002060000160009054906101000a900473ffffffffffffffffffffffffffffffffffffffff1673ffffffffffffffffffffffffffffffffffffffff1614610cdc576040517ff653d4c600000000000000000000000000000000000000000000000000000000815260040160405180910390fd5b60006004600087815260200190815260200160002060010154905060008142610d05919061181a565b90506000610d1282610b96565b905062015180670de0b6b3a764000083836064610d2f91906117c0565b610d3991906117c0565b610d4391906117c0565b610d4d919061178f565b87610d589190611739565b965042600460008a815260200190815260200160002060010181905550836001019350505050610c1d565b50606483610d91919061178f565b91507fd8138f8a3f377c5259ca548e70e4c2de94f129f5a11036a15b69513cba2b426a8883604051610dc49291906115d7565b60405180910390a160008214610e6457600360009054906101000a900473ffffffffffffffffffffffffffffffffffffffff1673ffffffffffffffffffffffffffffffffffffffff166340c10f1989846040518363ffffffff1660e01b8152600401610e319291906115d7565b600060405180830381600087803b158015610e4b57600080fd5b505af1158015610e5f573d6000803e3d6000fd5b505050505b8415610e7657610e75888888610fc2565b5b5050505050505050565b610e886111d9565b73ffffffffffffffffffffffffffffffffffffffff16610ea6610ac6565b73ffffffffffffffffffffffffffffffffffffffff1614610efc576040517f08c379a0000000000000000000000000000000000000000000000000000000008152600401610ef39061167d565b60405180910390fd5b565b60008060009054906101000a900473ffffffffffffffffffffffffffffffffffffffff169050816000806101000a81548173ffffffffffffffffffffffffffffffffffffffff021916908373ffffffffffffffffffffffffffffffffffffffff1602179055508173ffffffffffffffffffffffffffffffffffffffff168173ffffffffffffffffffffffffffffffffffffffff167f8be0079c531659141344cd1fd0a4f28419497f9722a3daafe3b4186f6b6457e060405160405180910390a35050565b600080600084849050905060005b818110156111bc57858582818110610feb57610fea611914565b5b9050602002013593508673ffffffffffffffffffffffffffffffffffffffff166004600086815260200190815260200160002060000160009054906101000a900473ffffffffffffffffffffffffffffffffffffffff1673ffffffffffffffffffffffffffffffffffffffff1614611098576040517f08c379a000000000000000000000000000000000000000000000000000000000815260040161108f9061165d565b60405180910390fd5b600260009054906101000a900473ffffffffffffffffffffffffffffffffffffffff1673ffffffffffffffffffffffffffffffffffffffff166342842e0e3089876040518463ffffffff1660e01b81526004016110f7939291906115a0565b600060405180830381600087803b15801561111157600080fd5b505af1158015611125573d6000803e3d6000fd5b5050505060046000858152602001908152602001600020600080820160006101000a81549073ffffffffffffffffffffffffffffffffffffffff0219169055600182016000905550507f175dc19fb4fe98420fd7e191684ecdc746cb34c7b69706c3713328d25f7be2058488426040516111a1939291906116b8565b60405180910390a18280600101935050806001019050610fd0565b50816001546111cb919061181a565b600181905550505050505050565b600033905090565b6000813590506111f081611a2c565b92915050565b60008151905061120581611a2c565b92915050565b60008083601f84011261122157611220611977565b5b8235905067ffffffffffffffff81111561123e5761123d611972565b5b60208301915083602082028301111561125a5761125961197c565b5b9250929050565b60008083601f84011261127757611276611977565b5b8235905067ffffffffffffffff81111561129457611293611972565b5b6020830191508360018202830111156112b0576112af61197c565b5b9250929050565b6000813590506112c681611a43565b92915050565b6000815190506112db81611a43565b92915050565b6000602082840312156112f7576112f6611986565b5b6000611305848285016111e1565b91505092915050565b60006020828403121561132457611323611986565b5b6000611332848285016111f6565b91505092915050565b60008060008060006080868803121561135757611356611986565b5b6000611365888289016111e1565b9550506020611376888289016111e1565b9450506040611387888289016112b7565b935050606086013567ffffffffffffffff8111156113a8576113a7611981565b5b6113b488828901611261565b92509250509295509295909350565b600080602083850312156113da576113d9611986565b5b600083013567ffffffffffffffff8111156113f8576113f7611981565b5b6114048582860161120b565b92509250509250929050565b60006020828403121561142657611425611986565b5b6000611434848285016112b7565b91505092915050565b60006020828403121561145357611452611986565b5b6000611461848285016112cc565b91505092915050565b60006114768383611567565b60208301905092915050565b61148b8161184e565b82525050565b600061149c826116ff565b6114a68185611717565b93506114b1836116ef565b8060005b838110156114e25781516114c9888261146a565b97506114d48361170a565b9250506001810190506114b5565b5085935050505092915050565b6114f881611860565b82525050565b600061150b602683611728565b91506115168261198b565b604082019050919050565b600061152e600983611728565b9150611539826119da565b602082019050919050565b6000611551602083611728565b915061155c82611a03565b602082019050919050565b611570816118ac565b82525050565b61157f816118ac565b82525050565b600060208201905061159a6000830184611482565b92915050565b60006060820190506115b56000830186611482565b6115c26020830185611482565b6115cf6040830184611576565b949350505050565b60006040820190506115ec6000830185611482565b6115f96020830184611576565b9392505050565b6000602082019050818103600083015261161a8184611491565b905092915050565b600060208201905061163760008301846114ef565b92915050565b60006020820190508181036000830152611656816114fe565b9050919050565b6000602082019050818103600083015261167681611521565b9050919050565b6000602082019050818103600083015261169681611544565b9050919050565b60006020820190506116b26000830184611576565b92915050565b60006060820190506116cd6000830186611576565b6116da6020830185611482565b6116e76040830184611576565b949350505050565b6000819050602082019050919050565b600081519050919050565b6000602082019050919050565b600082825260208201905092915050565b600082825260208201905092915050565b6000611744826118ac565b915061174f836118ac565b9250827fffffffffffffffffffffffffffffffffffffffffffffffffffffffffffffffff03821115611784576117836118b6565b5b828201905092915050565b600061179a826118ac565b91506117a5836118ac565b9250826117b5576117b46118e5565b5b828204905092915050565b60006117cb826118ac565b91506117d6836118ac565b9250817fffffffffffffffffffffffffffffffffffffffffffffffffffffffffffffffff048311821515161561180f5761180e6118b6565b5b828202905092915050565b6000611825826118ac565b9150611830836118ac565b925082821015611843576118426118b6565b5b828203905092915050565b60006118598261188c565b9050919050565b60007fffffffff0000000000000000000000000000000000000000000000000000000082169050919050565b600073ffffffffffffffffffffffffffffffffffffffff82169050919050565b6000819050919050565b7f4e487b7100000000000000000000000000000000000000000000000000000000600052601160045260246000fd5b7f4e487b7100000000000000000000000000000000000000000000000000000000600052601260045260246000fd5b7f4e487b7100000000000000000000000000000000000000000000000000000000600052603260045260246000fd5b7f4e487b7100000000000000000000000000000000000000000000000000000000600052604160045260246000fd5b600080fd5b600080fd5b600080fd5b600080fd5b600080fd5b7f4f776e61626c653a206e6577206f776e657220697320746865207a65726f206160008201527f6464726573730000000000000000000000000000000000000000000000000000602082015250565b7f4e6f74204f776e65720000000000000000000000000000000000000000000000600082015250565b7f4f776e61626c653a2063616c6c6572206973206e6f7420746865206f776e6572600082015250565b611a358161184e565b8114611a4057600080fd5b50565b611a4c816118ac565b8114611a5757600080fd5b5056fea2646970667358221220f58d123d26ecc2faff8d36e214011f53ee480a39bd5aca6201e776861b90184764736f6c63430008070033",
  "linkReferences": {},
  "deployedLinkReferences": {}
}